{
  "_format": "hh-sol-artifact-1",
  "contractName": "EternalNFT",
  "sourceName": "contracts/EternalNFT.sol",
  "abi": [
    {
      "inputs": [],
      "stateMutability": "nonpayable",
      "type": "constructor"
    },
    {
      "anonymous": false,
      "inputs": [
        {
          "indexed": true,
          "internalType": "address",
          "name": "owner",
          "type": "address"
        },
        {
          "indexed": true,
          "internalType": "address",
          "name": "approved",
          "type": "address"
        },
        {
          "indexed": true,
          "internalType": "uint256",
          "name": "tokenId",
          "type": "uint256"
        }
      ],
      "name": "Approval",
      "type": "event"
    },
    {
      "anonymous": false,
      "inputs": [
        {
          "indexed": true,
          "internalType": "address",
          "name": "owner",
          "type": "address"
        },
        {
          "indexed": true,
          "internalType": "address",
          "name": "operator",
          "type": "address"
        },
        {
          "indexed": false,
          "internalType": "bool",
          "name": "approved",
          "type": "bool"
        }
      ],
      "name": "ApprovalForAll",
      "type": "event"
    },
    {
      "anonymous": false,
      "inputs": [
        {
          "indexed": true,
          "internalType": "address",
          "name": "from",
          "type": "address"
        },
        {
          "indexed": true,
          "internalType": "address",
          "name": "to",
          "type": "address"
        },
        {
          "indexed": true,
          "internalType": "uint256",
          "name": "tokenId",
          "type": "uint256"
        }
      ],
      "name": "Transfer",
      "type": "event"
    },
    {
      "inputs": [
        {
          "internalType": "address",
          "name": "to",
          "type": "address"
        },
        {
          "internalType": "uint256",
          "name": "tokenId",
          "type": "uint256"
        }
      ],
      "name": "approve",
      "outputs": [],
      "stateMutability": "nonpayable",
      "type": "function"
    },
    {
      "inputs": [
        {
          "internalType": "address",
          "name": "owner",
          "type": "address"
        }
      ],
      "name": "balanceOf",
      "outputs": [
        {
          "internalType": "uint256",
          "name": "",
          "type": "uint256"
        }
      ],
      "stateMutability": "view",
      "type": "function"
    },
    {
      "inputs": [],
      "name": "collectionName",
      "outputs": [
        {
          "internalType": "string",
          "name": "",
          "type": "string"
        }
      ],
      "stateMutability": "view",
      "type": "function"
    },
    {
      "inputs": [],
      "name": "collectionSymbol",
      "outputs": [
        {
          "internalType": "string",
          "name": "",
          "type": "string"
        }
      ],
      "stateMutability": "view",
      "type": "function"
    },
    {
      "inputs": [],
      "name": "createEternalNFT",
      "outputs": [
        {
          "internalType": "uint256",
          "name": "",
          "type": "uint256"
        }
      ],
      "stateMutability": "nonpayable",
      "type": "function"
    },
    {
      "inputs": [
        {
          "internalType": "uint256",
          "name": "tokenId",
          "type": "uint256"
        }
      ],
      "name": "getApproved",
      "outputs": [
        {
          "internalType": "address",
          "name": "",
          "type": "address"
        }
      ],
      "stateMutability": "view",
      "type": "function"
    },
    {
      "inputs": [
        {
          "internalType": "address",
          "name": "owner",
          "type": "address"
        },
        {
          "internalType": "address",
          "name": "operator",
          "type": "address"
        }
      ],
      "name": "isApprovedForAll",
      "outputs": [
        {
          "internalType": "bool",
          "name": "",
          "type": "bool"
        }
      ],
      "stateMutability": "view",
      "type": "function"
    },
    {
      "inputs": [],
      "name": "name",
      "outputs": [
        {
          "internalType": "string",
          "name": "",
          "type": "string"
        }
      ],
      "stateMutability": "view",
      "type": "function"
    },
    {
      "inputs": [
        {
          "internalType": "uint256",
          "name": "tokenId",
          "type": "uint256"
        }
      ],
      "name": "ownerOf",
      "outputs": [
        {
          "internalType": "address",
          "name": "",
          "type": "address"
        }
      ],
      "stateMutability": "view",
      "type": "function"
    },
    {
      "inputs": [
        {
          "internalType": "uint256",
          "name": "tokenId",
          "type": "uint256"
        }
      ],
      "name": "pickFirstWord",
      "outputs": [
        {
          "internalType": "string",
          "name": "",
          "type": "string"
        }
      ],
      "stateMutability": "view",
      "type": "function"
    },
    {
      "inputs": [
        {
          "internalType": "uint256",
          "name": "tokenId",
          "type": "uint256"
        }
      ],
      "name": "pickSecondWord",
      "outputs": [
        {
          "internalType": "string",
          "name": "",
          "type": "string"
        }
      ],
      "stateMutability": "view",
      "type": "function"
    },
    {
      "inputs": [
        {
          "internalType": "uint256",
          "name": "tokenId",
          "type": "uint256"
        }
      ],
      "name": "pickThirdWord",
      "outputs": [
        {
          "internalType": "string",
          "name": "",
          "type": "string"
        }
      ],
      "stateMutability": "view",
      "type": "function"
    },
    {
      "inputs": [
        {
          "internalType": "address",
          "name": "from",
          "type": "address"
        },
        {
          "internalType": "address",
          "name": "to",
          "type": "address"
        },
        {
          "internalType": "uint256",
          "name": "tokenId",
          "type": "uint256"
        }
      ],
      "name": "safeTransferFrom",
      "outputs": [],
      "stateMutability": "nonpayable",
      "type": "function"
    },
    {
      "inputs": [
        {
          "internalType": "address",
          "name": "from",
          "type": "address"
        },
        {
          "internalType": "address",
          "name": "to",
          "type": "address"
        },
        {
          "internalType": "uint256",
          "name": "tokenId",
          "type": "uint256"
        },
        {
          "internalType": "bytes",
          "name": "_data",
          "type": "bytes"
        }
      ],
      "name": "safeTransferFrom",
      "outputs": [],
      "stateMutability": "nonpayable",
      "type": "function"
    },
    {
      "inputs": [
        {
          "internalType": "address",
          "name": "operator",
          "type": "address"
        },
        {
          "internalType": "bool",
          "name": "approved",
          "type": "bool"
        }
      ],
      "name": "setApprovalForAll",
      "outputs": [],
      "stateMutability": "nonpayable",
      "type": "function"
    },
    {
      "inputs": [
        {
          "internalType": "bytes4",
          "name": "interfaceId",
          "type": "bytes4"
        }
      ],
      "name": "supportsInterface",
      "outputs": [
        {
          "internalType": "bool",
          "name": "",
          "type": "bool"
        }
      ],
      "stateMutability": "view",
      "type": "function"
    },
    {
      "inputs": [],
      "name": "symbol",
      "outputs": [
        {
          "internalType": "string",
          "name": "",
          "type": "string"
        }
      ],
      "stateMutability": "view",
      "type": "function"
    },
    {
      "inputs": [
        {
          "internalType": "uint256",
          "name": "tokenId",
          "type": "uint256"
        }
      ],
      "name": "tokenURI",
      "outputs": [
        {
          "internalType": "string",
          "name": "",
          "type": "string"
        }
      ],
      "stateMutability": "view",
      "type": "function"
    },
    {
      "inputs": [
        {
          "internalType": "address",
          "name": "from",
          "type": "address"
        },
        {
          "internalType": "address",
          "name": "to",
          "type": "address"
        },
        {
          "internalType": "uint256",
          "name": "tokenId",
          "type": "uint256"
        }
      ],
      "name": "transferFrom",
      "outputs": [],
      "stateMutability": "nonpayable",
      "type": "function"
    }
  ],
  "bytecode": "0x6101e060405261012f608081815290620025b460a03980516200002b91600a91602090910190620004ab565b506040518060e00160405280604051806040016040528060048152602001634669726560e01b81525081526020016040518060400160405280600481526020016315da5b9960e21b8152508152602001604051806040016040528060048152602001635761766560e01b81525081526020016040518060400160405280600581526020016408ac2e4e8d60db1b8152508152602001604051806040016040528060078152602001662a343ab73232b960c91b815250815260200160405180604001604052806005815260200164537061636560d81b81525081526020016040518060400160405280600481526020016354696d6560e01b815250815250600b9060076200013a9291906200053a565b506040518060e001604052806040518060400160405280600581526020016414dddbdc9960da1b81525081526020016040518060400160405280600581526020016429b832b0b960d91b81525081526020016040518060400160405280600681526020016514da1a595b1960d21b8152508152602001604051806040016040528060068152602001652430b6b6b2b960d11b81525081526020016040518060400160405280600581526020016429b0b132b960d91b81525081526020016040518060400160405280600381526020016241786560e81b815250815260200160405180604001604052806003815260200162426f7760e81b815250815250600c906007620002499291906200053a565b506040805161012081018252600460e0820181815263131bdc9960e21b610100840152825282518084018452908152634b696e6760e01b602082810191909152808301919091528251808401845260078082526622b6b832b937b960c91b828401528385019190915283518085018552600981526856656e657261626c6560b81b81840152606084015283518085018552600881526720b731b2b9ba37b960c11b81840152608084015283518085018552600581526414d85a5b9d60da1b8184015260a08401528351808501909452600384526211dbd960ea1b9184019190915260c08201929092526200034191600d91906200053a565b503480156200034f57600080fd5b50604080518082018252600a815269115d195c9b985b13919560b21b6020808301918252835180850190945260048452631153919560e21b9084015281519192916200039e91600091620004ab565b508051620003b4906001906020840190620004ab565b50620003c291505062000400565b8051620003d891600891602090910190620004ab565b50620003e36200049a565b8051620003f991600991602090910190620004ab565b5062000654565b606060008054620004119062000617565b80601f01602080910402602001604051908101604052809291908181526020018280546200043f9062000617565b8015620004905780601f10620004645761010080835404028352916020019162000490565b820191906000526020600020905b8154815290600101906020018083116200047257829003601f168201915b5050505050905090565b606060018054620004119062000617565b828054620004b99062000617565b90600052602060002090601f016020900481019282620004dd576000855562000528565b82601f10620004f857805160ff191683800117855562000528565b8280016001018555821562000528579182015b82811115620005285782518255916020019190600101906200050b565b50620005369291506200059a565b5090565b8280548282559060005260206000209081019282156200058c579160200282015b828111156200058c57825180516200057b918491602090910190620004ab565b50916020019190600101906200055b565b5062000536929150620005b1565b5b808211156200053657600081556001016200059b565b8082111562000536576000620005c88282620005d2565b50600101620005b1565b508054620005e09062000617565b6000825580601f10620005f4575062000614565b601f0160209004906000526020600020908101906200061491906200059a565b50565b600181811c908216806200062c57607f821691505b602082108114156200064e57634e487b7160e01b600052602260045260246000fd5b50919050565b611f5080620006646000396000f3fe608060405234801561001057600080fd5b50600436106101215760003560e01c80636352211e116100ad578063c630338611610071578063c63033861461024e578063c87b56dd14610261578063e2d2c30814610274578063e5326ab114610287578063e985e9c51461028f57610121565b80636352211e146101fa57806370a082311461020d57806395d89b4114610220578063a22cb46514610228578063b88d4fde1461023b57610121565b806323b872dd116100f457806323b872dd146101a35780632f39352a146101b65780633330880e146101be5780633bad0d36146101d457806342842e0e146101e757610121565b806301ffc9a71461012657806306fdde031461014e578063081812fc14610163578063095ea7b31461018e575b600080fd5b6101396101343660046118ef565b6102cb565b60405190151581526020015b60405180910390f35b61015661031f565b6040516101459190611cd1565b610176610171366004611927565b6103b1565b6040516001600160a01b039091168152602001610145565b6101a161019c3660046118c6565b61043e565b005b6101a16101b136600461177c565b610554565b610156610585565b6101c6610613565b604051908152602001610145565b6101566101e2366004611927565b610724565b6101a16101f536600461177c565b610826565b610176610208366004611927565b610841565b6101c661021b366004611730565b6108b8565b61015661093f565b6101a161023636600461188c565b61094e565b6101a16102493660046117b7565b61095d565b61015661025c366004611927565b610995565b61015661026f366004611927565b6109e8565b610156610282366004611927565b610b60565b610156610bb3565b61013961029d36600461174a565b6001600160a01b03918216600090815260056020908152604080832093909416825291909152205460ff1690565b60006001600160e01b031982166380ac58cd60e01b14806102fc57506001600160e01b03198216635b5e139f60e01b145b8061031757506301ffc9a760e01b6001600160e01b03198316145b90505b919050565b60606000805461032e90611e15565b80601f016020809104026020016040519081016040528092919081815260200182805461035a90611e15565b80156103a75780601f1061037c576101008083540402835291602001916103a7565b820191906000526020600020905b81548152906001019060200180831161038a57829003601f168201915b5050505050905090565b60006103bc82610bc0565b6104225760405162461bcd60e51b815260206004820152602c60248201527f4552433732313a20617070726f76656420717565727920666f72206e6f6e657860448201526b34b9ba32b73a103a37b5b2b760a11b60648201526084015b60405180910390fd5b506000908152600460205260409020546001600160a01b031690565b600061044982610841565b9050806001600160a01b0316836001600160a01b031614156104b75760405162461bcd60e51b815260206004820152602160248201527f4552433732313a20617070726f76616c20746f2063757272656e74206f776e656044820152603960f91b6064820152608401610419565b336001600160a01b03821614806104d357506104d3813361029d565b6105455760405162461bcd60e51b815260206004820152603860248201527f4552433732313a20617070726f76652063616c6c6572206973206e6f74206f7760448201527f6e6572206e6f7220617070726f76656420666f7220616c6c00000000000000006064820152608401610419565b61054f8383610bdd565b505050565b61055e3382610c4b565b61057a5760405162461bcd60e51b815260040161041990611d36565b61054f838383610d31565b6009805461059290611e15565b80601f01602080910402602001604051908101604052809291908181526020018280546105be90611e15565b801561060b5780601f106105e05761010080835404028352916020019161060b565b820191906000526020600020905b8154815290600101906020018083116105ee57829003601f168201915b505050505081565b60008061061f60075490565b9050600061062c82610724565b9050600061063983610995565b9050600061064684610b60565b9050600083838360405160200161065f939291906119d2565b60405160208183030381529060405290506000600a85858560405160200161068a9493929190611a15565b604051602081830303815290604052905060006106cf836106aa84610ecd565b6040516020016106bb929190611b45565b604051602081830303815290604052610ecd565b90506000816040516020016106e49190611c4f565b60405160208183030381529060405290506106ff3389611041565b610709888261105b565b610717600780546001019055565b5095965050505050505090565b60606000610758610734846110e6565b6040516020016107449190611c20565b604051602081830303815290604052611201565b600b549091506107689082611e6b565b9050600b818154811061078b57634e487b7160e01b600052603260045260246000fd5b9060005260206000200180546107a090611e15565b80601f01602080910402602001604051908101604052809291908181526020018280546107cc90611e15565b80156108195780601f106107ee57610100808354040283529160200191610819565b820191906000526020600020905b8154815290600101906020018083116107fc57829003601f168201915b5050505050915050919050565b61054f8383836040518060200160405280600081525061095d565b6000818152600260205260408120546001600160a01b0316806103175760405162461bcd60e51b815260206004820152602960248201527f4552433732313a206f776e657220717565727920666f72206e6f6e657869737460448201526832b73a103a37b5b2b760b91b6064820152608401610419565b60006001600160a01b0382166109235760405162461bcd60e51b815260206004820152602a60248201527f4552433732313a2062616c616e636520717565727920666f7220746865207a65604482015269726f206164647265737360b01b6064820152608401610419565b506001600160a01b031660009081526003602052604090205490565b60606001805461032e90611e15565b610959338383611232565b5050565b6109673383610c4b565b6109835760405162461bcd60e51b815260040161041990611d36565b61098f84848484611301565b50505050565b606060006109b56109a5846110e6565b6040516020016107449190611aeb565b600c549091506109c59082611e6b565b9050600c818154811061078b57634e487b7160e01b600052603260045260246000fd5b60606109f382610bc0565b610a595760405162461bcd60e51b815260206004820152603160248201527f45524337323155524953746f726167653a2055524920717565727920666f72206044820152703737b732bc34b9ba32b73a103a37b5b2b760791b6064820152608401610419565b60008281526006602052604081208054610a7290611e15565b80601f0160208091040260200160405190810160405280929190818152602001828054610a9e90611e15565b8015610aeb5780601f10610ac057610100808354040283529160200191610aeb565b820191906000526020600020905b815481529060010190602001808311610ace57829003601f168201915b505050505090506000610b0960408051602081019091526000815290565b9050805160001415610b1d5750905061031a565b815115610b4f578082604051602001610b379291906119a3565b6040516020818303038152906040529250505061031a565b610b5884611334565b949350505050565b60606000610b80610b70846110e6565b6040516020016107449190611b19565b600d54909150610b909082611e6b565b9050600d818154811061078b57634e487b7160e01b600052603260045260246000fd5b6008805461059290611e15565b6000908152600260205260409020546001600160a01b0316151590565b600081815260046020526040902080546001600160a01b0319166001600160a01b0384169081179091558190610c1282610841565b6001600160a01b03167f8c5be1e5ebec7d5bd14f71427d1e84f3dd0314c0f7b2291e5b200ac8c7c3b92560405160405180910390a45050565b6000610c5682610bc0565b610cb75760405162461bcd60e51b815260206004820152602c60248201527f4552433732313a206f70657261746f7220717565727920666f72206e6f6e657860448201526b34b9ba32b73a103a37b5b2b760a11b6064820152608401610419565b6000610cc283610841565b9050806001600160a01b0316846001600160a01b03161480610cfd5750836001600160a01b0316610cf2846103b1565b6001600160a01b0316145b80610b5857506001600160a01b0380821660009081526005602090815260408083209388168352929052205460ff16610b58565b826001600160a01b0316610d4482610841565b6001600160a01b031614610da85760405162461bcd60e51b815260206004820152602560248201527f4552433732313a207472616e736665722066726f6d20696e636f72726563742060448201526437bbb732b960d91b6064820152608401610419565b6001600160a01b038216610e0a5760405162461bcd60e51b8152602060048201526024808201527f4552433732313a207472616e7366657220746f20746865207a65726f206164646044820152637265737360e01b6064820152608401610419565b610e15600082610bdd565b6001600160a01b0383166000908152600360205260408120805460019290610e3e908490611dd2565b90915550506001600160a01b0382166000908152600360205260408120805460019290610e6c908490611d87565b909155505060008181526002602052604080822080546001600160a01b0319166001600160a01b0386811691821790925591518493918716917fddf252ad1be2c89b69c2b068fc378daa952ba7f163c4a11628f55a4df523b3ef91a461054f565b805160609080610eed57505060408051602081019091526000815261031a565b60006003610efc836002611d87565b610f069190611d9f565b610f11906004611db3565b90506000610f20826020611d87565b67ffffffffffffffff811115610f4657634e487b7160e01b600052604160045260246000fd5b6040519080825280601f01601f191660200182016040528015610f70576020820181803683370190505b5090506000604051806060016040528060408152602001611edb604091399050600181016020830160005b86811015610ffc576003818a01810151603f601282901c8116860151600c83901c8216870151600684901c831688015192909316870151600891821b60ff94851601821b92841692909201901b91160160e01b835260049092019101610f9b565b506003860660018114611016576002811461102757611033565b613d3d60f01b600119830152611033565b603d60f81b6000198301525b505050918152949350505050565b61095982826040518060200160405280600081525061140c565b61106482610bc0565b6110c75760405162461bcd60e51b815260206004820152602e60248201527f45524337323155524953746f726167653a2055524920736574206f66206e6f6e60448201526d32bc34b9ba32b73a103a37b5b2b760911b6064820152608401610419565b6000828152600660209081526040909120825161054f92840190611680565b60608161110b57506040805180820190915260018152600360fc1b602082015261031a565b8160005b8115611135578061111f81611e50565b915061112e9050600a83611d9f565b915061110f565b60008167ffffffffffffffff81111561115e57634e487b7160e01b600052604160045260246000fd5b6040519080825280601f01601f191660200182016040528015611188576020820181803683370190505b5090505b8415610b585761119d600183611dd2565b91506111aa600a86611e6b565b6111b5906030611d87565b60f81b8183815181106111d857634e487b7160e01b600052603260045260246000fd5b60200101906001600160f81b031916908160001a9053506111fa600a86611d9f565b945061118c565b6000816040516020016112149190611987565b60408051601f19818403018152919052805160209091012092915050565b816001600160a01b0316836001600160a01b031614156112945760405162461bcd60e51b815260206004820152601960248201527f4552433732313a20617070726f766520746f2063616c6c6572000000000000006044820152606401610419565b6001600160a01b03838116600081815260056020908152604080832094871680845294825291829020805460ff191686151590811790915591519182527f17307eab39ab6107e8899845ad3d59bd9653f200f220920489ca2b5937696c31910160405180910390a3505050565b61130c848484610d31565b6113188484848461143f565b61098f5760405162461bcd60e51b815260040161041990611ce4565b606061133f82610bc0565b6113a35760405162461bcd60e51b815260206004820152602f60248201527f4552433732314d657461646174613a2055524920717565727920666f72206e6f60448201526e3732bc34b9ba32b73a103a37b5b2b760891b6064820152608401610419565b60006113ba60408051602081019091526000815290565b905060008151116113da5760405180602001604052806000815250611405565b806113e4846110e6565b6040516020016113f59291906119a3565b6040516020818303038152906040525b9392505050565b611416838361154c565b611423600084848461143f565b61054f5760405162461bcd60e51b815260040161041990611ce4565b60006001600160a01b0384163b1561154157604051630a85bd0160e11b81526001600160a01b0385169063150b7a0290611483903390899088908890600401611c94565b602060405180830381600087803b15801561149d57600080fd5b505af19250505080156114cd575060408051601f3d908101601f191682019092526114ca9181019061190b565b60015b611527573d8080156114fb576040519150601f19603f3d011682016040523d82523d6000602084013e611500565b606091505b50805161151f5760405162461bcd60e51b815260040161041990611ce4565b805181602001fd5b6001600160e01b031916630a85bd0160e11b149050610b58565b506001949350505050565b6001600160a01b0382166115a25760405162461bcd60e51b815260206004820181905260248201527f4552433732313a206d696e7420746f20746865207a65726f20616464726573736044820152606401610419565b6115ab81610bc0565b156115f85760405162461bcd60e51b815260206004820152601c60248201527f4552433732313a20746f6b656e20616c7265616479206d696e746564000000006044820152606401610419565b6001600160a01b0382166000908152600360205260408120805460019290611621908490611d87565b909155505060008181526002602052604080822080546001600160a01b0319166001600160a01b03861690811790915590518392907fddf252ad1be2c89b69c2b068fc378daa952ba7f163c4a11628f55a4df523b3ef908290a4610959565b82805461168c90611e15565b90600052602060002090601f0160209004810192826116ae57600085556116f4565b82601f106116c757805160ff19168380011785556116f4565b828001600101855582156116f4579182015b828111156116f45782518255916020019190600101906116d9565b50611700929150611704565b5090565b5b808211156117005760008155600101611705565b80356001600160a01b038116811461031a57600080fd5b600060208284031215611741578081fd5b61140582611719565b6000806040838503121561175c578081fd5b61176583611719565b915061177360208401611719565b90509250929050565b600080600060608486031215611790578081fd5b61179984611719565b92506117a760208501611719565b9150604084013590509250925092565b600080600080608085870312156117cc578081fd5b6117d585611719565b93506117e360208601611719565b925060408501359150606085013567ffffffffffffffff80821115611806578283fd5b818701915087601f830112611819578283fd5b81358181111561182b5761182b611eab565b604051601f8201601f19908116603f0116810190838211818310171561185357611853611eab565b816040528281528a602084870101111561186b578586fd5b82602086016020830137918201602001949094529598949750929550505050565b6000806040838503121561189e578182fd5b6118a783611719565b9150602083013580151581146118bb578182fd5b809150509250929050565b600080604083850312156118d8578182fd5b6118e183611719565b946020939093013593505050565b600060208284031215611900578081fd5b813561140581611ec1565b60006020828403121561191c578081fd5b815161140581611ec1565b600060208284031215611938578081fd5b5035919050565b60008151808452611957816020860160208601611de9565b601f01601f19169290920160200192915050565b6000815161197d818560208601611de9565b9290920192915050565b60008251611999818460208701611de9565b9190910192915050565b600083516119b5818460208801611de9565b8351908301906119c9818360208801611de9565b01949350505050565b600084516119e4818460208901611de9565b8451908301906119f8818360208901611de9565b8451910190611a0b818360208801611de9565b0195945050505050565b600080865482600182811c915080831680611a3157607f831692505b6020808410821415611a5157634e487b7160e01b87526022600452602487fd5b818015611a655760018114611a7657611aa2565b60ff19861689528489019650611aa2565b60008d815260209020885b86811015611a9a5781548b820152908501908301611a81565b505084890196505b505050505050611ae0611ac7611ac1611abb848a61196b565b8861196b565b8661196b565b6c1e17ba32bc3a1f1e17b9bb339f60991b8152600d0190565b979650505050505050565b6000653bb2b0b837b760d11b82528251611b0c816006850160208701611de9565b9190910160060192915050565b60006372616e6b60e01b82528251611b38816004850160208701611de9565b9190910160040192915050565b693d913730b6b2911d101160b11b81528251600090611b6b81600a850160208801611de9565b7f222c20226465736372697074696f6e223a20224120686967686c79206163636c600a918401918201527f61696d656420636f6c6c656374696f6e20457465726e616c2057617272696f72602a8201527f73222c2022696d616765223a2022646174613a696d6167652f7376672b786d6c604a820152670ed8985cd94d8d0b60c21b606a8201528351611c05816072840160208801611de9565b61227d60f01b60729290910191820152607401949350505050565b600066195b195b595b9d60ca1b82528251611c42816007850160208701611de9565b9190910160070192915050565b60007f646174613a6170706c69636174696f6e2f6a736f6e3b6261736536342c00000082528251611c8781601d850160208701611de9565b91909101601d0192915050565b6001600160a01b0385811682528416602082015260408101839052608060608201819052600090611cc79083018461193f565b9695505050505050565b600060208252611405602083018461193f565b60208082526032908201527f4552433732313a207472616e7366657220746f206e6f6e20455243373231526560408201527131b2b4bb32b91034b6b83632b6b2b73a32b960711b606082015260800190565b60208082526031908201527f4552433732313a207472616e736665722063616c6c6572206973206e6f74206f6040820152701ddb995c881b9bdc88185c1c1c9bdd9959607a1b606082015260800190565b60008219821115611d9a57611d9a611e7f565b500190565b600082611dae57611dae611e95565b500490565b6000816000190483118215151615611dcd57611dcd611e7f565b500290565b600082821015611de457611de4611e7f565b500390565b60005b83811015611e04578181015183820152602001611dec565b8381111561098f5750506000910152565b600181811c90821680611e2957607f821691505b60208210811415611e4a57634e487b7160e01b600052602260045260246000fd5b50919050565b6000600019821415611e6457611e64611e7f565b5060010190565b600082611e7a57611e7a611e95565b500690565b634e487b7160e01b600052601160045260246000fd5b634e487b7160e01b600052601260045260246000fd5b634e487b7160e01b600052604160045260246000fd5b6001600160e01b031981168114611ed757600080fd5b5056fe4142434445464748494a4b4c4d4e4f505152535455565758595a6162636465666768696a6b6c6d6e6f707172737475767778797a303132333435363738392b2fa264697066735822122099ef1e66c1c68a288547ce1541bdd5421dec4572dfe53adae8f44259e48c528e64736f6c634300080300333c73766720786d6c6e733d27687474703a2f2f7777772e77332e6f72672f323030302f73766727207072657365727665417370656374526174696f3d27784d696e594d696e206d656574272076696577426f783d273020302033353020333530273e3c7374796c653e2e62617365207b2066696c6c3a2077686974653b20666f6e742d66616d696c793a2073657269663b20666f6e742d73697a653a20323470783b207d3c2f7374796c653e3c726563742077696474683d273130302527206865696768743d2731303025272066696c6c3d27626c61636b27202f3e3c7465787420783d273530252720793d273530252720636c6173733d27626173652720646f6d696e616e742d626173656c696e653d276d6964646c652720746578742d616e63686f723d276d6964646c65273e",
  "linkReferences": {},
  "deployedLinkReferences": {}
}